{
  "_format": "hh-sol-artifact-1",
  "contractName": "AGMarket",
  "sourceName": "contracts/AGMarket.sol",
  "abi": [
    {
      "inputs": [
        {
          "internalType": "address",
          "name": "treasury",
          "type": "address"
        },
        {
          "internalType": "uint256",
          "name": "price",
          "type": "uint256"
        },
        {
          "internalType": "address",
          "name": "factory",
          "type": "address"
        },
        {
          "internalType": "address",
          "name": "token",
          "type": "address"
        }
      ],
      "stateMutability": "nonpayable",
      "type": "constructor"
    },
    {
      "anonymous": false,
      "inputs": [
        {
          "indexed": false,
          "internalType": "uint256",
          "name": "id",
          "type": "uint256"
        },
        {
          "indexed": false,
          "internalType": "address",
          "name": "owner",
          "type": "address"
        },
        {
          "indexed": false,
          "internalType": "string",
          "name": "name",
          "type": "string"
        },
        {
          "indexed": false,
          "internalType": "string",
          "name": "symbol",
          "type": "string"
        },
        {
          "indexed": false,
          "internalType": "uint256",
          "name": "suppy",
          "type": "uint256"
        },
        {
          "indexed": false,
          "internalType": "address",
          "name": "contractAddress",
          "type": "address"
        }
      ],
      "name": "CreateProjectAccount",
      "type": "event"
    },
    {
      "anonymous": false,
      "inputs": [
        {
          "indexed": true,
          "internalType": "bytes32",
          "name": "role",
          "type": "bytes32"
        },
        {
          "indexed": true,
          "internalType": "bytes32",
          "name": "previousAdminRole",
          "type": "bytes32"
        },
        {
          "indexed": true,
          "internalType": "bytes32",
          "name": "newAdminRole",
          "type": "bytes32"
        }
      ],
      "name": "RoleAdminChanged",
      "type": "event"
    },
    {
      "anonymous": false,
      "inputs": [
        {
          "indexed": true,
          "internalType": "bytes32",
          "name": "role",
          "type": "bytes32"
        },
        {
          "indexed": true,
          "internalType": "address",
          "name": "account",
          "type": "address"
        },
        {
          "indexed": true,
          "internalType": "address",
          "name": "sender",
          "type": "address"
        }
      ],
      "name": "RoleGranted",
      "type": "event"
    },
    {
      "anonymous": false,
      "inputs": [
        {
          "indexed": true,
          "internalType": "bytes32",
          "name": "role",
          "type": "bytes32"
        },
        {
          "indexed": true,
          "internalType": "address",
          "name": "account",
          "type": "address"
        },
        {
          "indexed": true,
          "internalType": "address",
          "name": "sender",
          "type": "address"
        }
      ],
      "name": "RoleRevoked",
      "type": "event"
    },
    {
      "inputs": [],
      "name": "DEFAULT_ADMIN_ROLE",
      "outputs": [
        {
          "internalType": "bytes32",
          "name": "",
          "type": "bytes32"
        }
      ],
      "stateMutability": "view",
      "type": "function"
    },
    {
      "inputs": [],
      "name": "agPrice",
      "outputs": [
        {
          "internalType": "uint256",
          "name": "",
          "type": "uint256"
        }
      ],
      "stateMutability": "view",
      "type": "function"
    },
    {
      "inputs": [
        {
          "internalType": "string",
          "name": "name",
          "type": "string"
        },
        {
          "internalType": "string",
          "name": "symbol",
          "type": "string"
        },
        {
          "internalType": "uint64",
          "name": "supply",
          "type": "uint64"
        }
      ],
      "name": "createProject",
      "outputs": [],
      "stateMutability": "nonpayable",
      "type": "function"
    },
    {
      "inputs": [
        {
          "internalType": "uint256",
          "name": "",
          "type": "uint256"
        }
      ],
      "name": "creators",
      "outputs": [
        {
          "internalType": "address",
          "name": "",
          "type": "address"
        }
      ],
      "stateMutability": "view",
      "type": "function"
    },
    {
      "inputs": [
        {
          "internalType": "bytes32",
          "name": "role",
          "type": "bytes32"
        }
      ],
      "name": "getRoleAdmin",
      "outputs": [
        {
          "internalType": "bytes32",
          "name": "",
          "type": "bytes32"
        }
      ],
      "stateMutability": "view",
      "type": "function"
    },
    {
      "inputs": [
        {
          "internalType": "bytes32",
          "name": "role",
          "type": "bytes32"
        },
        {
          "internalType": "address",
          "name": "account",
          "type": "address"
        }
      ],
      "name": "grantRole",
      "outputs": [],
      "stateMutability": "nonpayable",
      "type": "function"
    },
    {
      "inputs": [
        {
          "internalType": "bytes32",
          "name": "role",
          "type": "bytes32"
        },
        {
          "internalType": "address",
          "name": "account",
          "type": "address"
        }
      ],
      "name": "hasRole",
      "outputs": [
        {
          "internalType": "bool",
          "name": "",
          "type": "bool"
        }
      ],
      "stateMutability": "view",
      "type": "function"
    },
    {
      "inputs": [
        {
          "internalType": "uint256",
          "name": "projectId",
          "type": "uint256"
        },
        {
          "internalType": "address",
          "name": "to",
          "type": "address"
        },
        {
          "internalType": "uint256",
          "name": "amount",
          "type": "uint256"
        }
      ],
      "name": "mintFanToken",
      "outputs": [],
      "stateMutability": "nonpayable",
      "type": "function"
    },
    {
      "inputs": [
        {
          "internalType": "bytes32",
          "name": "role",
          "type": "bytes32"
        },
        {
          "internalType": "address",
          "name": "account",
          "type": "address"
        }
      ],
      "name": "renounceRole",
      "outputs": [],
      "stateMutability": "nonpayable",
      "type": "function"
    },
    {
      "inputs": [
        {
          "internalType": "bytes32",
          "name": "role",
          "type": "bytes32"
        },
        {
          "internalType": "address",
          "name": "account",
          "type": "address"
        }
      ],
      "name": "revokeRole",
      "outputs": [],
      "stateMutability": "nonpayable",
      "type": "function"
    },
    {
      "inputs": [
        {
          "internalType": "uint256",
          "name": "price",
          "type": "uint256"
        }
      ],
      "name": "setPrice",
      "outputs": [],
      "stateMutability": "nonpayable",
      "type": "function"
    },
    {
      "inputs": [
        {
          "internalType": "bytes4",
          "name": "interfaceId",
          "type": "bytes4"
        }
      ],
      "name": "supportsInterface",
      "outputs": [
        {
          "internalType": "bool",
          "name": "",
          "type": "bool"
        }
      ],
      "stateMutability": "view",
      "type": "function"
    }
  ],
  "bytecode": "0x60806040523480156200001157600080fd5b5060405162001fcb38038062001fcb8339818101604052810190620000379190620003a2565b600073ffffffffffffffffffffffffffffffffffffffff168473ffffffffffffffffffffffffffffffffffffffff1603620000a9576040517f08c379a0000000000000000000000000000000000000000000000000000000008152600401620000a09062000475565b60405180910390fd5b620000be6000801b336200019a60201b60201c565b83600160006101000a81548173ffffffffffffffffffffffffffffffffffffffff021916908373ffffffffffffffffffffffffffffffffffffffff16021790555081600260006101000a81548173ffffffffffffffffffffffffffffffffffffffff021916908373ffffffffffffffffffffffffffffffffffffffff16021790555080600360006101000a81548173ffffffffffffffffffffffffffffffffffffffff021916908373ffffffffffffffffffffffffffffffffffffffff1602179055508260058190555060006004819055505050505062000497565b620001ac82826200028b60201b60201c565b6200028757600160008084815260200190815260200160002060000160008373ffffffffffffffffffffffffffffffffffffffff1673ffffffffffffffffffffffffffffffffffffffff16815260200190815260200160002060006101000a81548160ff0219169083151502179055506200022c620002f560201b60201c565b73ffffffffffffffffffffffffffffffffffffffff168173ffffffffffffffffffffffffffffffffffffffff16837f2f8788117e7eff1d82e926ec794901d17c78024a50270940304540a733656f0d60405160405180910390a45b5050565b600080600084815260200190815260200160002060000160008373ffffffffffffffffffffffffffffffffffffffff1673ffffffffffffffffffffffffffffffffffffffff16815260200190815260200160002060009054906101000a900460ff16905092915050565b600033905090565b600080fd5b600073ffffffffffffffffffffffffffffffffffffffff82169050919050565b60006200032f8262000302565b9050919050565b620003418162000322565b81146200034d57600080fd5b50565b600081519050620003618162000336565b92915050565b6000819050919050565b6200037c8162000367565b81146200038857600080fd5b50565b6000815190506200039c8162000371565b92915050565b60008060008060808587031215620003bf57620003be620002fd565b5b6000620003cf8782880162000350565b9450506020620003e2878288016200038b565b9350506040620003f58782880162000350565b9250506060620004088782880162000350565b91505092959194509250565b600082825260208201905092915050565b7f496e76616c696420416464726573730000000000000000000000000000000000600082015250565b60006200045d600f8362000414565b91506200046a8262000425565b602082019050919050565b6000602082019050818103600083015262000490816200044e565b9050919050565b611b2480620004a76000396000f3fe608060405234801561001057600080fd5b50600436106100b45760003560e01c806391d148541161007157806391d148541461018957806395cb4472146101b9578063a217fddf146101d5578063cd53d08e146101f3578063d547741f14610223578063f8dea9291461023f576100b4565b806301ffc9a7146100b95780630f68666e146100e9578063248a9ca3146101055780632f2ff15d1461013557806336568abe1461015157806391b7f5ed1461016d575b600080fd5b6100d360048036038101906100ce9190610ec6565b61025d565b6040516100e09190610f0e565b60405180910390f35b61010360048036038101906100fe9190610fbd565b6102d7565b005b61011f600480360381019061011a9190611046565b61040e565b60405161012c9190611082565b60405180910390f35b61014f600480360381019061014a919061109d565b61042d565b005b61016b6004803603810190610166919061109d565b61044e565b005b610187600480360381019061018291906110dd565b6104d1565b005b6101a3600480360381019061019e919061109d565b6104e9565b6040516101b09190610f0e565b60405180910390f35b6101d360048036038101906101ce9190611290565b610553565b005b6101dd6108c4565b6040516101ea9190611082565b60405180910390f35b61020d600480360381019061020891906110dd565b6108cb565b60405161021a919061132a565b60405180910390f35b61023d6004803603810190610238919061109d565b6108fe565b005b61024761091f565b6040516102549190611354565b60405180910390f35b60007f7965db0b000000000000000000000000000000000000000000000000000000007bffffffffffffffffffffffffffffffffffffffffffffffffffffffff1916827bffffffffffffffffffffffffffffffffffffffffffffffffffffffff191614806102d057506102cf82610925565b5b9050919050565b3373ffffffffffffffffffffffffffffffffffffffff166006600085815260200190815260200160002060009054906101000a900473ffffffffffffffffffffffffffffffffffffffff1673ffffffffffffffffffffffffffffffffffffffff1614610378576040517f08c379a000000000000000000000000000000000000000000000000000000000815260040161036f906113cc565b60405180910390fd5b600260009054906101000a900473ffffffffffffffffffffffffffffffffffffffff1673ffffffffffffffffffffffffffffffffffffffff1663f578cb338484846040518463ffffffff1660e01b81526004016103d7939291906113ec565b600060405180830381600087803b1580156103f157600080fd5b505af1158015610405573d6000803e3d6000fd5b50505050505050565b6000806000838152602001908152602001600020600101549050919050565b6104368261040e565b61043f8161098f565b61044983836109a3565b505050565b610456610a83565b73ffffffffffffffffffffffffffffffffffffffff168173ffffffffffffffffffffffffffffffffffffffff16146104c3576040517f08c379a00000000000000000000000000000000000000000000000000000000081526004016104ba90611495565b60405180910390fd5b6104cd8282610a8b565b5050565b6000801b6104de8161098f565b816005819055505050565b600080600084815260200190815260200160002060000160008373ffffffffffffffffffffffffffffffffffffffff1673ffffffffffffffffffffffffffffffffffffffff16815260200190815260200160002060009054906101000a900460ff16905092915050565b60008351118015610565575060008251115b801561057b575060008167ffffffffffffffff16115b6105ba576040517f08c379a00000000000000000000000000000000000000000000000000000000081526004016105b190611501565b60405180910390fd5b600554600360009054906101000a900473ffffffffffffffffffffffffffffffffffffffff1673ffffffffffffffffffffffffffffffffffffffff166370a08231336040518263ffffffff1660e01b8152600401610618919061132a565b602060405180830381865afa158015610635573d6000803e3d6000fd5b505050506040513d601f19601f820116820180604052508101906106599190611536565b101561069a576040517f08c379a0000000000000000000000000000000000000000000000000000000008152600401610691906115af565b60405180910390fd5b3360066000600454815260200190815260200160002060006101000a81548173ffffffffffffffffffffffffffffffffffffffff021916908373ffffffffffffffffffffffffffffffffffffffff160217905550600060055411156107c157600360009054906101000a900473ffffffffffffffffffffffffffffffffffffffff1673ffffffffffffffffffffffffffffffffffffffff166323b872dd33600160009054906101000a900473ffffffffffffffffffffffffffffffffffffffff166005546040518463ffffffff1660e01b815260040161077c939291906115cf565b6020604051808303816000875af115801561079b573d6000803e3d6000fd5b505050506040513d601f19601f820116820180604052508101906107bf9190611632565b505b6000600260009054906101000a900473ffffffffffffffffffffffffffffffffffffffff1673ffffffffffffffffffffffffffffffffffffffff166355c0c1c98585856040518463ffffffff1660e01b8152600401610822939291906116dc565b6020604051808303816000875af1158015610841573d6000803e3d6000fd5b505050506040513d601f19601f820116820180604052508101906108659190611736565b90507fff5642122cd9db7e05bfc50d3263c79cb9103821f4b7da4819d474a4cf6bcb246004600081548092919061089b90611792565b9190505533868686866040516108b696959493929190611815565b60405180910390a150505050565b6000801b81565b60066020528060005260406000206000915054906101000a900473ffffffffffffffffffffffffffffffffffffffff1681565b6109078261040e565b6109108161098f565b61091a8383610a8b565b505050565b60055481565b60007f01ffc9a7000000000000000000000000000000000000000000000000000000007bffffffffffffffffffffffffffffffffffffffffffffffffffffffff1916827bffffffffffffffffffffffffffffffffffffffffffffffffffffffff1916149050919050565b6109a08161099b610a83565b610b6c565b50565b6109ad82826104e9565b610a7f57600160008084815260200190815260200160002060000160008373ffffffffffffffffffffffffffffffffffffffff1673ffffffffffffffffffffffffffffffffffffffff16815260200190815260200160002060006101000a81548160ff021916908315150217905550610a24610a83565b73ffffffffffffffffffffffffffffffffffffffff168173ffffffffffffffffffffffffffffffffffffffff16837f2f8788117e7eff1d82e926ec794901d17c78024a50270940304540a733656f0d60405160405180910390a45b5050565b600033905090565b610a9582826104e9565b15610b6857600080600084815260200190815260200160002060000160008373ffffffffffffffffffffffffffffffffffffffff1673ffffffffffffffffffffffffffffffffffffffff16815260200190815260200160002060006101000a81548160ff021916908315150217905550610b0d610a83565b73ffffffffffffffffffffffffffffffffffffffff168173ffffffffffffffffffffffffffffffffffffffff16837ff6391f5c32d9c69d2a47ea670b442974b53935d1edc7fd64eb21e047a839171b60405160405180910390a45b5050565b610b7682826104e9565b610bed57610b8381610bf1565b610b918360001c6020610c1e565b604051602001610ba2929190611958565b6040516020818303038152906040526040517f08c379a0000000000000000000000000000000000000000000000000000000008152600401610be49190611992565b60405180910390fd5b5050565b6060610c178273ffffffffffffffffffffffffffffffffffffffff16601460ff16610c1e565b9050919050565b606060006002836002610c3191906119b4565b610c3b91906119f6565b67ffffffffffffffff811115610c5457610c53611125565b5b6040519080825280601f01601f191660200182016040528015610c865781602001600182028036833780820191505090505b5090507f300000000000000000000000000000000000000000000000000000000000000081600081518110610cbe57610cbd611a2a565b5b60200101907effffffffffffffffffffffffffffffffffffffffffffffffffffffffffffff1916908160001a9053507f780000000000000000000000000000000000000000000000000000000000000081600181518110610d2257610d21611a2a565b5b60200101907effffffffffffffffffffffffffffffffffffffffffffffffffffffffffffff1916908160001a90535060006001846002610d6291906119b4565b610d6c91906119f6565b90505b6001811115610e0c577f3031323334353637383961626364656600000000000000000000000000000000600f861660108110610dae57610dad611a2a565b5b1a60f81b828281518110610dc557610dc4611a2a565b5b60200101907effffffffffffffffffffffffffffffffffffffffffffffffffffffffffffff1916908160001a905350600485901c945080610e0590611a59565b9050610d6f565b5060008414610e50576040517f08c379a0000000000000000000000000000000000000000000000000000000008152600401610e4790611ace565b60405180910390fd5b8091505092915050565b6000604051905090565b600080fd5b600080fd5b60007fffffffff0000000000000000000000000000000000000000000000000000000082169050919050565b610ea381610e6e565b8114610eae57600080fd5b50565b600081359050610ec081610e9a565b92915050565b600060208284031215610edc57610edb610e64565b5b6000610eea84828501610eb1565b91505092915050565b60008115159050919050565b610f0881610ef3565b82525050565b6000602082019050610f236000830184610eff565b92915050565b6000819050919050565b610f3c81610f29565b8114610f4757600080fd5b50565b600081359050610f5981610f33565b92915050565b600073ffffffffffffffffffffffffffffffffffffffff82169050919050565b6000610f8a82610f5f565b9050919050565b610f9a81610f7f565b8114610fa557600080fd5b50565b600081359050610fb781610f91565b92915050565b600080600060608486031215610fd657610fd5610e64565b5b6000610fe486828701610f4a565b9350506020610ff586828701610fa8565b925050604061100686828701610f4a565b9150509250925092565b6000819050919050565b61102381611010565b811461102e57600080fd5b50565b6000813590506110408161101a565b92915050565b60006020828403121561105c5761105b610e64565b5b600061106a84828501611031565b91505092915050565b61107c81611010565b82525050565b60006020820190506110976000830184611073565b92915050565b600080604083850312156110b4576110b3610e64565b5b60006110c285828601611031565b92505060206110d385828601610fa8565b9150509250929050565b6000602082840312156110f3576110f2610e64565b5b600061110184828501610f4a565b91505092915050565b600080fd5b600080fd5b6000601f19601f8301169050919050565b7f4e487b7100000000000000000000000000000000000000000000000000000000600052604160045260246000fd5b61115d82611114565b810181811067ffffffffffffffff8211171561117c5761117b611125565b5b80604052505050565b600061118f610e5a565b905061119b8282611154565b919050565b600067ffffffffffffffff8211156111bb576111ba611125565b5b6111c482611114565b9050602081019050919050565b82818337600083830152505050565b60006111f36111ee846111a0565b611185565b90508281526020810184848401111561120f5761120e61110f565b5b61121a8482856111d1565b509392505050565b600082601f8301126112375761123661110a565b5b81356112478482602086016111e0565b91505092915050565b600067ffffffffffffffff82169050919050565b61126d81611250565b811461127857600080fd5b50565b60008135905061128a81611264565b92915050565b6000806000606084860312156112a9576112a8610e64565b5b600084013567ffffffffffffffff8111156112c7576112c6610e69565b5b6112d386828701611222565b935050602084013567ffffffffffffffff8111156112f4576112f3610e69565b5b61130086828701611222565b92505060406113118682870161127b565b9150509250925092565b61132481610f7f565b82525050565b600060208201905061133f600083018461131b565b92915050565b61134e81610f29565b82525050565b60006020820190506113696000830184611345565b92915050565b600082825260208201905092915050565b7f43616c6c20746f206d696e74206279206e6f6e2d6f776e657200000000000000600082015250565b60006113b660198361136f565b91506113c182611380565b602082019050919050565b600060208201905081810360008301526113e5816113a9565b9050919050565b60006060820190506114016000830186611345565b61140e602083018561131b565b61141b6040830184611345565b949350505050565b7f416363657373436f6e74726f6c3a2063616e206f6e6c792072656e6f756e636560008201527f20726f6c657320666f722073656c660000000000000000000000000000000000602082015250565b600061147f602f8361136f565b915061148a82611423565b604082019050919050565b600060208201905081810360008301526114ae81611472565b9050919050565b7f496e76616c6964206e616d652c2073796d626f6c206f7220737570706c790000600082015250565b60006114eb601e8361136f565b91506114f6826114b5565b602082019050919050565b6000602082019050818103600083015261151a816114de565b9050919050565b60008151905061153081610f33565b92915050565b60006020828403121561154c5761154b610e64565b5b600061155a84828501611521565b91505092915050565b7f41474e542062616c616e6365206973206e6f7420656e6f756768000000000000600082015250565b6000611599601a8361136f565b91506115a482611563565b602082019050919050565b600060208201905081810360008301526115c88161158c565b9050919050565b60006060820190506115e4600083018661131b565b6115f1602083018561131b565b6115fe6040830184611345565b949350505050565b61160f81610ef3565b811461161a57600080fd5b50565b60008151905061162c81611606565b92915050565b60006020828403121561164857611647610e64565b5b60006116568482850161161d565b91505092915050565b600081519050919050565b60005b8381101561168857808201518184015260208101905061166d565b60008484015250505050565b600061169f8261165f565b6116a9818561136f565b93506116b981856020860161166a565b6116c281611114565b840191505092915050565b6116d681611250565b82525050565b600060608201905081810360008301526116f68186611694565b9050818103602083015261170a8185611694565b905061171960408301846116cd565b949350505050565b60008151905061173081610f91565b92915050565b60006020828403121561174c5761174b610e64565b5b600061175a84828501611721565b91505092915050565b7f4e487b7100000000000000000000000000000000000000000000000000000000600052601160045260246000fd5b600061179d82610f29565b91507fffffffffffffffffffffffffffffffffffffffffffffffffffffffffffffffff82036117cf576117ce611763565b5b600182019050919050565b6000819050919050565b60006117ff6117fa6117f584611250565b6117da565b610f29565b9050919050565b61180f816117e4565b82525050565b600060c08201905061182a6000830189611345565b611837602083018861131b565b81810360408301526118498187611694565b9050818103606083015261185d8186611694565b905061186c6080830185611806565b61187960a083018461131b565b979650505050505050565b600081905092915050565b7f416363657373436f6e74726f6c3a206163636f756e7420000000000000000000600082015250565b60006118c5601783611884565b91506118d08261188f565b601782019050919050565b60006118e68261165f565b6118f08185611884565b935061190081856020860161166a565b80840191505092915050565b7f206973206d697373696e6720726f6c6520000000000000000000000000000000600082015250565b6000611942601183611884565b915061194d8261190c565b601182019050919050565b6000611963826118b8565b915061196f82856118db565b915061197a82611935565b915061198682846118db565b91508190509392505050565b600060208201905081810360008301526119ac8184611694565b905092915050565b60006119bf82610f29565b91506119ca83610f29565b92508282026119d881610f29565b915082820484148315176119ef576119ee611763565b5b5092915050565b6000611a0182610f29565b9150611a0c83610f29565b9250828201905080821115611a2457611a23611763565b5b92915050565b7f4e487b7100000000000000000000000000000000000000000000000000000000600052603260045260246000fd5b6000611a6482610f29565b915060008203611a7757611a76611763565b5b600182039050919050565b7f537472696e67733a20686578206c656e67746820696e73756666696369656e74600082015250565b6000611ab860208361136f565b9150611ac382611a82565b602082019050919050565b60006020820190508181036000830152611ae781611aab565b905091905056fea26469706673582212204682681119acacaae286b5a5fb8ff7f79c2430dbdb3d77e24067c1b5e779a2b664736f6c63430008110033",
  "linkReferences": {},
  "deployedLinkReferences": {}
}