{
  "_format": "hh-sol-artifact-1",
  "contractName": "AgentsGaming",
  "sourceName": "contracts/AgentsGaming.sol",
  "abi": [
    {
      "inputs": [],
      "stateMutability": "nonpayable",
      "type": "constructor"
    },
    {
      "anonymous": false,
      "inputs": [
        {
          "indexed": true,
          "internalType": "address",
          "name": "owner",
          "type": "address"
        },
        {
          "indexed": true,
          "internalType": "address",
          "name": "spender",
          "type": "address"
        },
        {
          "indexed": false,
          "internalType": "uint256",
          "name": "value",
          "type": "uint256"
        }
      ],
      "name": "Approval",
      "type": "event"
    },
    {
      "anonymous": false,
      "inputs": [
        {
          "indexed": false,
          "internalType": "address",
          "name": "account",
          "type": "address"
        }
      ],
      "name": "Paused",
      "type": "event"
    },
    {
      "anonymous": false,
      "inputs": [
        {
          "indexed": true,
          "internalType": "bytes32",
          "name": "role",
          "type": "bytes32"
        },
        {
          "indexed": true,
          "internalType": "bytes32",
          "name": "previousAdminRole",
          "type": "bytes32"
        },
        {
          "indexed": true,
          "internalType": "bytes32",
          "name": "newAdminRole",
          "type": "bytes32"
        }
      ],
      "name": "RoleAdminChanged",
      "type": "event"
    },
    {
      "anonymous": false,
      "inputs": [
        {
          "indexed": true,
          "internalType": "bytes32",
          "name": "role",
          "type": "bytes32"
        },
        {
          "indexed": true,
          "internalType": "address",
          "name": "account",
          "type": "address"
        },
        {
          "indexed": true,
          "internalType": "address",
          "name": "sender",
          "type": "address"
        }
      ],
      "name": "RoleGranted",
      "type": "event"
    },
    {
      "anonymous": false,
      "inputs": [
        {
          "indexed": true,
          "internalType": "bytes32",
          "name": "role",
          "type": "bytes32"
        },
        {
          "indexed": true,
          "internalType": "address",
          "name": "account",
          "type": "address"
        },
        {
          "indexed": true,
          "internalType": "address",
          "name": "sender",
          "type": "address"
        }
      ],
      "name": "RoleRevoked",
      "type": "event"
    },
    {
      "anonymous": false,
      "inputs": [
        {
          "indexed": true,
          "internalType": "address",
          "name": "from",
          "type": "address"
        },
        {
          "indexed": true,
          "internalType": "address",
          "name": "to",
          "type": "address"
        },
        {
          "indexed": false,
          "internalType": "uint256",
          "name": "value",
          "type": "uint256"
        }
      ],
      "name": "Transfer",
      "type": "event"
    },
    {
      "anonymous": false,
      "inputs": [
        {
          "indexed": false,
          "internalType": "address",
          "name": "account",
          "type": "address"
        }
      ],
      "name": "Unpaused",
      "type": "event"
    },
    {
      "inputs": [],
      "name": "DEFAULT_ADMIN_ROLE",
      "outputs": [
        {
          "internalType": "bytes32",
          "name": "",
          "type": "bytes32"
        }
      ],
      "stateMutability": "view",
      "type": "function"
    },
    {
      "inputs": [],
      "name": "MINTER_ROLE",
      "outputs": [
        {
          "internalType": "bytes32",
          "name": "",
          "type": "bytes32"
        }
      ],
      "stateMutability": "view",
      "type": "function"
    },
    {
      "inputs": [],
      "name": "PAUSER_ROLE",
      "outputs": [
        {
          "internalType": "bytes32",
          "name": "",
          "type": "bytes32"
        }
      ],
      "stateMutability": "view",
      "type": "function"
    },
    {
      "inputs": [
        {
          "internalType": "address",
          "name": "owner",
          "type": "address"
        },
        {
          "internalType": "address",
          "name": "spender",
          "type": "address"
        }
      ],
      "name": "allowance",
      "outputs": [
        {
          "internalType": "uint256",
          "name": "",
          "type": "uint256"
        }
      ],
      "stateMutability": "view",
      "type": "function"
    },
    {
      "inputs": [
        {
          "internalType": "address",
          "name": "spender",
          "type": "address"
        },
        {
          "internalType": "uint256",
          "name": "amount",
          "type": "uint256"
        }
      ],
      "name": "approve",
      "outputs": [
        {
          "internalType": "bool",
          "name": "",
          "type": "bool"
        }
      ],
      "stateMutability": "nonpayable",
      "type": "function"
    },
    {
      "inputs": [
        {
          "internalType": "address",
          "name": "account",
          "type": "address"
        }
      ],
      "name": "balanceOf",
      "outputs": [
        {
          "internalType": "uint256",
          "name": "",
          "type": "uint256"
        }
      ],
      "stateMutability": "view",
      "type": "function"
    },
    {
      "inputs": [],
      "name": "cap",
      "outputs": [
        {
          "internalType": "uint256",
          "name": "",
          "type": "uint256"
        }
      ],
      "stateMutability": "view",
      "type": "function"
    },
    {
      "inputs": [],
      "name": "decimals",
      "outputs": [
        {
          "internalType": "uint8",
          "name": "",
          "type": "uint8"
        }
      ],
      "stateMutability": "view",
      "type": "function"
    },
    {
      "inputs": [
        {
          "internalType": "address",
          "name": "spender",
          "type": "address"
        },
        {
          "internalType": "uint256",
          "name": "subtractedValue",
          "type": "uint256"
        }
      ],
      "name": "decreaseAllowance",
      "outputs": [
        {
          "internalType": "bool",
          "name": "",
          "type": "bool"
        }
      ],
      "stateMutability": "nonpayable",
      "type": "function"
    },
    {
      "inputs": [
        {
          "internalType": "bytes32",
          "name": "role",
          "type": "bytes32"
        }
      ],
      "name": "getRoleAdmin",
      "outputs": [
        {
          "internalType": "bytes32",
          "name": "",
          "type": "bytes32"
        }
      ],
      "stateMutability": "view",
      "type": "function"
    },
    {
      "inputs": [
        {
          "internalType": "bytes32",
          "name": "role",
          "type": "bytes32"
        },
        {
          "internalType": "address",
          "name": "account",
          "type": "address"
        }
      ],
      "name": "grantRole",
      "outputs": [],
      "stateMutability": "nonpayable",
      "type": "function"
    },
    {
      "inputs": [
        {
          "internalType": "bytes32",
          "name": "role",
          "type": "bytes32"
        },
        {
          "internalType": "address",
          "name": "account",
          "type": "address"
        }
      ],
      "name": "hasRole",
      "outputs": [
        {
          "internalType": "bool",
          "name": "",
          "type": "bool"
        }
      ],
      "stateMutability": "view",
      "type": "function"
    },
    {
      "inputs": [
        {
          "internalType": "address",
          "name": "spender",
          "type": "address"
        },
        {
          "internalType": "uint256",
          "name": "addedValue",
          "type": "uint256"
        }
      ],
      "name": "increaseAllowance",
      "outputs": [
        {
          "internalType": "bool",
          "name": "",
          "type": "bool"
        }
      ],
      "stateMutability": "nonpayable",
      "type": "function"
    },
    {
      "inputs": [
        {
          "internalType": "address",
          "name": "to",
          "type": "address"
        },
        {
          "internalType": "uint256",
          "name": "amount",
          "type": "uint256"
        }
      ],
      "name": "mint",
      "outputs": [],
      "stateMutability": "nonpayable",
      "type": "function"
    },
    {
      "inputs": [],
      "name": "name",
      "outputs": [
        {
          "internalType": "string",
          "name": "",
          "type": "string"
        }
      ],
      "stateMutability": "view",
      "type": "function"
    },
    {
      "inputs": [],
      "name": "pause",
      "outputs": [],
      "stateMutability": "nonpayable",
      "type": "function"
    },
    {
      "inputs": [],
      "name": "paused",
      "outputs": [
        {
          "internalType": "bool",
          "name": "",
          "type": "bool"
        }
      ],
      "stateMutability": "view",
      "type": "function"
    },
    {
      "inputs": [
        {
          "internalType": "bytes32",
          "name": "role",
          "type": "bytes32"
        },
        {
          "internalType": "address",
          "name": "account",
          "type": "address"
        }
      ],
      "name": "renounceRole",
      "outputs": [],
      "stateMutability": "nonpayable",
      "type": "function"
    },
    {
      "inputs": [
        {
          "internalType": "bytes32",
          "name": "role",
          "type": "bytes32"
        },
        {
          "internalType": "address",
          "name": "account",
          "type": "address"
        }
      ],
      "name": "revokeRole",
      "outputs": [],
      "stateMutability": "nonpayable",
      "type": "function"
    },
    {
      "inputs": [
        {
          "internalType": "bytes4",
          "name": "interfaceId",
          "type": "bytes4"
        }
      ],
      "name": "supportsInterface",
      "outputs": [
        {
          "internalType": "bool",
          "name": "",
          "type": "bool"
        }
      ],
      "stateMutability": "view",
      "type": "function"
    },
    {
      "inputs": [],
      "name": "symbol",
      "outputs": [
        {
          "internalType": "string",
          "name": "",
          "type": "string"
        }
      ],
      "stateMutability": "view",
      "type": "function"
    },
    {
      "inputs": [],
      "name": "totalSupply",
      "outputs": [
        {
          "internalType": "uint256",
          "name": "",
          "type": "uint256"
        }
      ],
      "stateMutability": "view",
      "type": "function"
    },
    {
      "inputs": [
        {
          "internalType": "address",
          "name": "to",
          "type": "address"
        },
        {
          "internalType": "uint256",
          "name": "amount",
          "type": "uint256"
        }
      ],
      "name": "transfer",
      "outputs": [
        {
          "internalType": "bool",
          "name": "",
          "type": "bool"
        }
      ],
      "stateMutability": "nonpayable",
      "type": "function"
    },
    {
      "inputs": [
        {
          "internalType": "address",
          "name": "from",
          "type": "address"
        },
        {
          "internalType": "address",
          "name": "to",
          "type": "address"
        },
        {
          "internalType": "uint256",
          "name": "amount",
          "type": "uint256"
        }
      ],
      "name": "transferFrom",
      "outputs": [
        {
          "internalType": "bool",
          "name": "",
          "type": "bool"
        }
      ],
      "stateMutability": "nonpayable",
      "type": "function"
    },
    {
      "inputs": [],
      "name": "unpause",
      "outputs": [],
      "stateMutability": "nonpayable",
      "type": "function"
    }
  ],
  "bytecode": "0x60a06040523480156200001157600080fd5b506012600a620000229190620004a0565b6305f5e100620000339190620004f1565b6040518060400160405280600c81526020017f4167656e747347616d696e6700000000000000000000000000000000000000008152506040518060400160405280600481526020017f41474e54000000000000000000000000000000000000000000000000000000008152508160039081620000b09190620007ac565b508060049081620000c29190620007ac565b505050600081116200010b576040517f08c379a00000000000000000000000000000000000000000000000000000000081526004016200010290620008f4565b60405180910390fd5b8060808181525050506000600560006101000a81548160ff021916908315150217905550620001446000801b33620001ae60201b60201c565b620001767f65d7a28e3265b37a6474929f336521b332c1681b933f6cb9f3376673440d862a33620001ae60201b60201c565b620001a87f9f2df0fed2c77648de5860a4cc508cd0818c85b8b8a1ab4ceeef8d981c8956a633620001ae60201b60201c565b62000916565b620001c08282620002a060201b60201c565b6200029c5760016006600084815260200190815260200160002060000160008373ffffffffffffffffffffffffffffffffffffffff1673ffffffffffffffffffffffffffffffffffffffff16815260200190815260200160002060006101000a81548160ff021916908315150217905550620002416200030b60201b60201c565b73ffffffffffffffffffffffffffffffffffffffff168173ffffffffffffffffffffffffffffffffffffffff16837f2f8788117e7eff1d82e926ec794901d17c78024a50270940304540a733656f0d60405160405180910390a45b5050565b60006006600084815260200190815260200160002060000160008373ffffffffffffffffffffffffffffffffffffffff1673ffffffffffffffffffffffffffffffffffffffff16815260200190815260200160002060009054906101000a900460ff16905092915050565b600033905090565b7f4e487b7100000000000000000000000000000000000000000000000000000000600052601160045260246000fd5b60008160011c9050919050565b6000808291508390505b6001851115620003a15780860481111562000379576200037862000313565b5b6001851615620003895780820291505b8081029050620003998562000342565b945062000359565b94509492505050565b600082620003bc57600190506200048f565b81620003cc57600090506200048f565b8160018114620003e55760028114620003f05762000426565b60019150506200048f565b60ff84111562000405576200040462000313565b5b8360020a9150848211156200041f576200041e62000313565b5b506200048f565b5060208310610133831016604e8410600b8410161715620004605782820a9050838111156200045a576200045962000313565b5b6200048f565b6200046f84848460016200034f565b9250905081840481111562000489576200048862000313565b5b81810290505b9392505050565b6000819050919050565b6000620004ad8262000496565b9150620004ba8362000496565b9250620004e97fffffffffffffffffffffffffffffffffffffffffffffffffffffffffffffffff8484620003aa565b905092915050565b6000620004fe8262000496565b91506200050b8362000496565b92508282026200051b8162000496565b9150828204841483151762000535576200053462000313565b5b5092915050565b600081519050919050565b7f4e487b7100000000000000000000000000000000000000000000000000000000600052604160045260246000fd5b7f4e487b7100000000000000000000000000000000000000000000000000000000600052602260045260246000fd5b60006002820490506001821680620005be57607f821691505b602082108103620005d457620005d362000576565b5b50919050565b60008190508160005260206000209050919050565b60006020601f8301049050919050565b600082821b905092915050565b6000600883026200063e7fffffffffffffffffffffffffffffffffffffffffffffffffffffffffffffffff82620005ff565b6200064a8683620005ff565b95508019841693508086168417925050509392505050565b6000819050919050565b60006200068d62000687620006818462000496565b62000662565b62000496565b9050919050565b6000819050919050565b620006a9836200066c565b620006c1620006b88262000694565b8484546200060c565b825550505050565b600090565b620006d8620006c9565b620006e58184846200069e565b505050565b5b818110156200070d5762000701600082620006ce565b600181019050620006eb565b5050565b601f8211156200075c576200072681620005da565b6200073184620005ef565b8101602085101562000741578190505b620007596200075085620005ef565b830182620006ea565b50505b505050565b600082821c905092915050565b6000620007816000198460080262000761565b1980831691505092915050565b60006200079c83836200076e565b9150826002028217905092915050565b620007b7826200053c565b67ffffffffffffffff811115620007d357620007d262000547565b5b620007df8254620005a5565b620007ec82828562000711565b600060209050601f8311600181146200082457600084156200080f578287015190505b6200081b85826200078e565b8655506200088b565b601f1984166200083486620005da565b60005b828110156200085e5784890151825560018201915060208501945060208101905062000837565b868310156200087e57848901516200087a601f8916826200076e565b8355505b6001600288020188555050505b505050505050565b600082825260208201905092915050565b7f45524332304361707065643a2063617020697320300000000000000000000000600082015250565b6000620008dc60158362000893565b9150620008e982620008a4565b602082019050919050565b600060208201905081810360008301526200090f81620008cd565b9050919050565b6080516125ff6200093260003960006106a001526125ff6000f3fe608060405234801561001057600080fd5b50600436106101735760003560e01c806340c10f19116100de578063a217fddf11610097578063d539139311610071578063d539139314610462578063d547741f14610480578063dd62ed3e1461049c578063e63ab1e9146104cc57610173565b8063a217fddf146103e4578063a457c2d714610402578063a9059cbb1461043257610173565b806340c10f19146103225780635c975abb1461033e57806370a082311461035c5780638456cb591461038c57806391d148541461039657806395d89b41146103c657610173565b80632f2ff15d116101305780632f2ff15d14610274578063313ce56714610290578063355274ea146102ae57806336568abe146102cc57806339509351146102e85780633f4ba83a1461031857610173565b806301ffc9a71461017857806306fdde03146101a8578063095ea7b3146101c657806318160ddd146101f657806323b872dd14610214578063248a9ca314610244575b600080fd5b610192600480360381019061018d91906118a8565b6104ea565b60405161019f91906118f0565b60405180910390f35b6101b0610564565b6040516101bd919061199b565b60405180910390f35b6101e060048036038101906101db9190611a51565b6105f6565b6040516101ed91906118f0565b60405180910390f35b6101fe610619565b60405161020b9190611aa0565b60405180910390f35b61022e60048036038101906102299190611abb565b610623565b60405161023b91906118f0565b60405180910390f35b61025e60048036038101906102599190611b44565b610652565b60405161026b9190611b80565b60405180910390f35b61028e60048036038101906102899190611b9b565b610672565b005b610298610693565b6040516102a59190611bf7565b60405180910390f35b6102b661069c565b6040516102c39190611aa0565b60405180910390f35b6102e660048036038101906102e19190611b9b565b6106c4565b005b61030260048036038101906102fd9190611a51565b610747565b60405161030f91906118f0565b60405180910390f35b61032061077e565b005b61033c60048036038101906103379190611a51565b6107b3565b005b6103466107ec565b60405161035391906118f0565b60405180910390f35b61037660048036038101906103719190611c12565b610803565b6040516103839190611aa0565b60405180910390f35b61039461084b565b005b6103b060048036038101906103ab9190611b9b565b610880565b6040516103bd91906118f0565b60405180910390f35b6103ce6108eb565b6040516103db919061199b565b60405180910390f35b6103ec61097d565b6040516103f99190611b80565b60405180910390f35b61041c60048036038101906104179190611a51565b610984565b60405161042991906118f0565b60405180910390f35b61044c60048036038101906104479190611a51565b6109fb565b60405161045991906118f0565b60405180910390f35b61046a610a1e565b6040516104779190611b80565b60405180910390f35b61049a60048036038101906104959190611b9b565b610a42565b005b6104b660048036038101906104b19190611c3f565b610a63565b6040516104c39190611aa0565b60405180910390f35b6104d4610aea565b6040516104e19190611b80565b60405180910390f35b60007f7965db0b000000000000000000000000000000000000000000000000000000007bffffffffffffffffffffffffffffffffffffffffffffffffffffffff1916827bffffffffffffffffffffffffffffffffffffffffffffffffffffffff1916148061055d575061055c82610b0e565b5b9050919050565b60606003805461057390611cae565b80601f016020809104026020016040519081016040528092919081815260200182805461059f90611cae565b80156105ec5780601f106105c1576101008083540402835291602001916105ec565b820191906000526020600020905b8154815290600101906020018083116105cf57829003601f168201915b5050505050905090565b600080610601610b78565b905061060e818585610b80565b600191505092915050565b6000600254905090565b60008061062e610b78565b905061063b858285610d49565b610646858585610dd5565b60019150509392505050565b600060066000838152602001908152602001600020600101549050919050565b61067b82610652565b6106848161104b565b61068e838361105f565b505050565b60006012905090565b60007f0000000000000000000000000000000000000000000000000000000000000000905090565b6106cc610b78565b73ffffffffffffffffffffffffffffffffffffffff168173ffffffffffffffffffffffffffffffffffffffff1614610739576040517f08c379a000000000000000000000000000000000000000000000000000000000815260040161073090611d51565b60405180910390fd5b6107438282611140565b5050565b600080610752610b78565b90506107738185856107648589610a63565b61076e9190611da0565b610b80565b600191505092915050565b7f65d7a28e3265b37a6474929f336521b332c1681b933f6cb9f3376673440d862a6107a88161104b565b6107b0611222565b50565b7f9f2df0fed2c77648de5860a4cc508cd0818c85b8b8a1ab4ceeef8d981c8956a66107dd8161104b565b6107e78383611285565b505050565b6000600560009054906101000a900460ff16905090565b60008060008373ffffffffffffffffffffffffffffffffffffffff1673ffffffffffffffffffffffffffffffffffffffff168152602001908152602001600020549050919050565b7f65d7a28e3265b37a6474929f336521b332c1681b933f6cb9f3376673440d862a6108758161104b565b61087d6112ef565b50565b60006006600084815260200190815260200160002060000160008373ffffffffffffffffffffffffffffffffffffffff1673ffffffffffffffffffffffffffffffffffffffff16815260200190815260200160002060009054906101000a900460ff16905092915050565b6060600480546108fa90611cae565b80601f016020809104026020016040519081016040528092919081815260200182805461092690611cae565b80156109735780601f1061094857610100808354040283529160200191610973565b820191906000526020600020905b81548152906001019060200180831161095657829003601f168201915b5050505050905090565b6000801b81565b60008061098f610b78565b9050600061099d8286610a63565b9050838110156109e2576040517f08c379a00000000000000000000000000000000000000000000000000000000081526004016109d990611e46565b60405180910390fd5b6109ef8286868403610b80565b60019250505092915050565b600080610a06610b78565b9050610a13818585610dd5565b600191505092915050565b7f9f2df0fed2c77648de5860a4cc508cd0818c85b8b8a1ab4ceeef8d981c8956a681565b610a4b82610652565b610a548161104b565b610a5e8383611140565b505050565b6000600160008473ffffffffffffffffffffffffffffffffffffffff1673ffffffffffffffffffffffffffffffffffffffff16815260200190815260200160002060008373ffffffffffffffffffffffffffffffffffffffff1673ffffffffffffffffffffffffffffffffffffffff16815260200190815260200160002054905092915050565b7f65d7a28e3265b37a6474929f336521b332c1681b933f6cb9f3376673440d862a81565b60007f01ffc9a7000000000000000000000000000000000000000000000000000000007bffffffffffffffffffffffffffffffffffffffffffffffffffffffff1916827bffffffffffffffffffffffffffffffffffffffffffffffffffffffff1916149050919050565b600033905090565b600073ffffffffffffffffffffffffffffffffffffffff168373ffffffffffffffffffffffffffffffffffffffff1603610bef576040517f08c379a0000000000000000000000000000000000000000000000000000000008152600401610be690611ed8565b60405180910390fd5b600073ffffffffffffffffffffffffffffffffffffffff168273ffffffffffffffffffffffffffffffffffffffff1603610c5e576040517f08c379a0000000000000000000000000000000000000000000000000000000008152600401610c5590611f6a565b60405180910390fd5b80600160008573ffffffffffffffffffffffffffffffffffffffff1673ffffffffffffffffffffffffffffffffffffffff16815260200190815260200160002060008473ffffffffffffffffffffffffffffffffffffffff1673ffffffffffffffffffffffffffffffffffffffff168152602001908152602001600020819055508173ffffffffffffffffffffffffffffffffffffffff168373ffffffffffffffffffffffffffffffffffffffff167f8c5be1e5ebec7d5bd14f71427d1e84f3dd0314c0f7b2291e5b200ac8c7c3b92583604051610d3c9190611aa0565b60405180910390a3505050565b6000610d558484610a63565b90507fffffffffffffffffffffffffffffffffffffffffffffffffffffffffffffffff8114610dcf5781811015610dc1576040517f08c379a0000000000000000000000000000000000000000000000000000000008152600401610db890611fd6565b60405180910390fd5b610dce8484848403610b80565b5b50505050565b600073ffffffffffffffffffffffffffffffffffffffff168373ffffffffffffffffffffffffffffffffffffffff1603610e44576040517f08c379a0000000000000000000000000000000000000000000000000000000008152600401610e3b90612068565b60405180910390fd5b600073ffffffffffffffffffffffffffffffffffffffff168273ffffffffffffffffffffffffffffffffffffffff1603610eb3576040517f08c379a0000000000000000000000000000000000000000000000000000000008152600401610eaa906120fa565b60405180910390fd5b610ebe838383611352565b60008060008573ffffffffffffffffffffffffffffffffffffffff1673ffffffffffffffffffffffffffffffffffffffff16815260200190815260200160002054905081811015610f44576040517f08c379a0000000000000000000000000000000000000000000000000000000008152600401610f3b9061218c565b60405180910390fd5b8181036000808673ffffffffffffffffffffffffffffffffffffffff1673ffffffffffffffffffffffffffffffffffffffff16815260200190815260200160002081905550816000808573ffffffffffffffffffffffffffffffffffffffff1673ffffffffffffffffffffffffffffffffffffffff168152602001908152602001600020600082825401925050819055508273ffffffffffffffffffffffffffffffffffffffff168473ffffffffffffffffffffffffffffffffffffffff167fddf252ad1be2c89b69c2b068fc378daa952ba7f163c4a11628f55a4df523b3ef846040516110329190611aa0565b60405180910390a361104584848461136a565b50505050565b61105c81611057610b78565b61136f565b50565b6110698282610880565b61113c5760016006600084815260200190815260200160002060000160008373ffffffffffffffffffffffffffffffffffffffff1673ffffffffffffffffffffffffffffffffffffffff16815260200190815260200160002060006101000a81548160ff0219169083151502179055506110e1610b78565b73ffffffffffffffffffffffffffffffffffffffff168173ffffffffffffffffffffffffffffffffffffffff16837f2f8788117e7eff1d82e926ec794901d17c78024a50270940304540a733656f0d60405160405180910390a45b5050565b61114a8282610880565b1561121e5760006006600084815260200190815260200160002060000160008373ffffffffffffffffffffffffffffffffffffffff1673ffffffffffffffffffffffffffffffffffffffff16815260200190815260200160002060006101000a81548160ff0219169083151502179055506111c3610b78565b73ffffffffffffffffffffffffffffffffffffffff168173ffffffffffffffffffffffffffffffffffffffff16837ff6391f5c32d9c69d2a47ea670b442974b53935d1edc7fd64eb21e047a839171b60405160405180910390a45b5050565b61122a6113f4565b6000600560006101000a81548160ff0219169083151502179055507f5db9ee0a495bf2e6ff9c91a7834c1ba4fdd244a5e8aa4e537bd38aeae4b073aa61126e610b78565b60405161127b91906121bb565b60405180910390a1565b61128d61069c565b81611296610619565b6112a09190611da0565b11156112e1576040517f08c379a00000000000000000000000000000000000000000000000000000000081526004016112d890612222565b60405180910390fd5b6112eb828261143d565b5050565b6112f7611593565b6001600560006101000a81548160ff0219169083151502179055507f62e78cea01bee320cd4e420270b5ea74000d11b0c9f74754ebdbfc544b05a25861133b610b78565b60405161134891906121bb565b60405180910390a1565b61135a611593565b6113658383836115dd565b505050565b505050565b6113798282610880565b6113f057611386816115e2565b6113948360001c602061160f565b6040516020016113a5929190612316565b6040516020818303038152906040526040517f08c379a00000000000000000000000000000000000000000000000000000000081526004016113e7919061199b565b60405180910390fd5b5050565b6113fc6107ec565b61143b576040517f08c379a00000000000000000000000000000000000000000000000000000000081526004016114329061239c565b60405180910390fd5b565b600073ffffffffffffffffffffffffffffffffffffffff168273ffffffffffffffffffffffffffffffffffffffff16036114ac576040517f08c379a00000000000000000000000000000000000000000000000000000000081526004016114a390612408565b60405180910390fd5b6114b860008383611352565b80600260008282546114ca9190611da0565b92505081905550806000808473ffffffffffffffffffffffffffffffffffffffff1673ffffffffffffffffffffffffffffffffffffffff168152602001908152602001600020600082825401925050819055508173ffffffffffffffffffffffffffffffffffffffff16600073ffffffffffffffffffffffffffffffffffffffff167fddf252ad1be2c89b69c2b068fc378daa952ba7f163c4a11628f55a4df523b3ef8360405161157b9190611aa0565b60405180910390a361158f6000838361136a565b5050565b61159b6107ec565b156115db576040517f08c379a00000000000000000000000000000000000000000000000000000000081526004016115d290612474565b60405180910390fd5b565b505050565b60606116088273ffffffffffffffffffffffffffffffffffffffff16601460ff1661160f565b9050919050565b6060600060028360026116229190612494565b61162c9190611da0565b67ffffffffffffffff811115611645576116446124d6565b5b6040519080825280601f01601f1916602001820160405280156116775781602001600182028036833780820191505090505b5090507f3000000000000000000000000000000000000000000000000000000000000000816000815181106116af576116ae612505565b5b60200101907effffffffffffffffffffffffffffffffffffffffffffffffffffffffffffff1916908160001a9053507f78000000000000000000000000000000000000000000000000000000000000008160018151811061171357611712612505565b5b60200101907effffffffffffffffffffffffffffffffffffffffffffffffffffffffffffff1916908160001a905350600060018460026117539190612494565b61175d9190611da0565b90505b60018111156117fd577f3031323334353637383961626364656600000000000000000000000000000000600f86166010811061179f5761179e612505565b5b1a60f81b8282815181106117b6576117b5612505565b5b60200101907effffffffffffffffffffffffffffffffffffffffffffffffffffffffffffff1916908160001a905350600485901c9450806117f690612534565b9050611760565b5060008414611841576040517f08c379a0000000000000000000000000000000000000000000000000000000008152600401611838906125a9565b60405180910390fd5b8091505092915050565b600080fd5b60007fffffffff0000000000000000000000000000000000000000000000000000000082169050919050565b61188581611850565b811461189057600080fd5b50565b6000813590506118a28161187c565b92915050565b6000602082840312156118be576118bd61184b565b5b60006118cc84828501611893565b91505092915050565b60008115159050919050565b6118ea816118d5565b82525050565b600060208201905061190560008301846118e1565b92915050565b600081519050919050565b600082825260208201905092915050565b60005b8381101561194557808201518184015260208101905061192a565b60008484015250505050565b6000601f19601f8301169050919050565b600061196d8261190b565b6119778185611916565b9350611987818560208601611927565b61199081611951565b840191505092915050565b600060208201905081810360008301526119b58184611962565b905092915050565b600073ffffffffffffffffffffffffffffffffffffffff82169050919050565b60006119e8826119bd565b9050919050565b6119f8816119dd565b8114611a0357600080fd5b50565b600081359050611a15816119ef565b92915050565b6000819050919050565b611a2e81611a1b565b8114611a3957600080fd5b50565b600081359050611a4b81611a25565b92915050565b60008060408385031215611a6857611a6761184b565b5b6000611a7685828601611a06565b9250506020611a8785828601611a3c565b9150509250929050565b611a9a81611a1b565b82525050565b6000602082019050611ab56000830184611a91565b92915050565b600080600060608486031215611ad457611ad361184b565b5b6000611ae286828701611a06565b9350506020611af386828701611a06565b9250506040611b0486828701611a3c565b9150509250925092565b6000819050919050565b611b2181611b0e565b8114611b2c57600080fd5b50565b600081359050611b3e81611b18565b92915050565b600060208284031215611b5a57611b5961184b565b5b6000611b6884828501611b2f565b91505092915050565b611b7a81611b0e565b82525050565b6000602082019050611b956000830184611b71565b92915050565b60008060408385031215611bb257611bb161184b565b5b6000611bc085828601611b2f565b9250506020611bd185828601611a06565b9150509250929050565b600060ff82169050919050565b611bf181611bdb565b82525050565b6000602082019050611c0c6000830184611be8565b92915050565b600060208284031215611c2857611c2761184b565b5b6000611c3684828501611a06565b91505092915050565b60008060408385031215611c5657611c5561184b565b5b6000611c6485828601611a06565b9250506020611c7585828601611a06565b9150509250929050565b7f4e487b7100000000000000000000000000000000000000000000000000000000600052602260045260246000fd5b60006002820490506001821680611cc657607f821691505b602082108103611cd957611cd8611c7f565b5b50919050565b7f416363657373436f6e74726f6c3a2063616e206f6e6c792072656e6f756e636560008201527f20726f6c657320666f722073656c660000000000000000000000000000000000602082015250565b6000611d3b602f83611916565b9150611d4682611cdf565b604082019050919050565b60006020820190508181036000830152611d6a81611d2e565b9050919050565b7f4e487b7100000000000000000000000000000000000000000000000000000000600052601160045260246000fd5b6000611dab82611a1b565b9150611db683611a1b565b9250828201905080821115611dce57611dcd611d71565b5b92915050565b7f45524332303a2064656372656173656420616c6c6f77616e63652062656c6f7760008201527f207a65726f000000000000000000000000000000000000000000000000000000602082015250565b6000611e30602583611916565b9150611e3b82611dd4565b604082019050919050565b60006020820190508181036000830152611e5f81611e23565b9050919050565b7f45524332303a20617070726f76652066726f6d20746865207a65726f2061646460008201527f7265737300000000000000000000000000000000000000000000000000000000602082015250565b6000611ec2602483611916565b9150611ecd82611e66565b604082019050919050565b60006020820190508181036000830152611ef181611eb5565b9050919050565b7f45524332303a20617070726f766520746f20746865207a65726f20616464726560008201527f7373000000000000000000000000000000000000000000000000000000000000602082015250565b6000611f54602283611916565b9150611f5f82611ef8565b604082019050919050565b60006020820190508181036000830152611f8381611f47565b9050919050565b7f45524332303a20696e73756666696369656e7420616c6c6f77616e6365000000600082015250565b6000611fc0601d83611916565b9150611fcb82611f8a565b602082019050919050565b60006020820190508181036000830152611fef81611fb3565b9050919050565b7f45524332303a207472616e736665722066726f6d20746865207a65726f20616460008201527f6472657373000000000000000000000000000000000000000000000000000000602082015250565b6000612052602583611916565b915061205d82611ff6565b604082019050919050565b6000602082019050818103600083015261208181612045565b9050919050565b7f45524332303a207472616e7366657220746f20746865207a65726f206164647260008201527f6573730000000000000000000000000000000000000000000000000000000000602082015250565b60006120e4602383611916565b91506120ef82612088565b604082019050919050565b60006020820190508181036000830152612113816120d7565b9050919050565b7f45524332303a207472616e7366657220616d6f756e742065786365656473206260008201527f616c616e63650000000000000000000000000000000000000000000000000000602082015250565b6000612176602683611916565b91506121818261211a565b604082019050919050565b600060208201905081810360008301526121a581612169565b9050919050565b6121b5816119dd565b82525050565b60006020820190506121d060008301846121ac565b92915050565b7f45524332304361707065643a2063617020657863656564656400000000000000600082015250565b600061220c601983611916565b9150612217826121d6565b602082019050919050565b6000602082019050818103600083015261223b816121ff565b9050919050565b600081905092915050565b7f416363657373436f6e74726f6c3a206163636f756e7420000000000000000000600082015250565b6000612283601783612242565b915061228e8261224d565b601782019050919050565b60006122a48261190b565b6122ae8185612242565b93506122be818560208601611927565b80840191505092915050565b7f206973206d697373696e6720726f6c6520000000000000000000000000000000600082015250565b6000612300601183612242565b915061230b826122ca565b601182019050919050565b600061232182612276565b915061232d8285612299565b9150612338826122f3565b91506123448284612299565b91508190509392505050565b7f5061757361626c653a206e6f7420706175736564000000000000000000000000600082015250565b6000612386601483611916565b915061239182612350565b602082019050919050565b600060208201905081810360008301526123b581612379565b9050919050565b7f45524332303a206d696e7420746f20746865207a65726f206164647265737300600082015250565b60006123f2601f83611916565b91506123fd826123bc565b602082019050919050565b60006020820190508181036000830152612421816123e5565b9050919050565b7f5061757361626c653a2070617573656400000000000000000000000000000000600082015250565b600061245e601083611916565b915061246982612428565b602082019050919050565b6000602082019050818103600083015261248d81612451565b9050919050565b600061249f82611a1b565b91506124aa83611a1b565b92508282026124b881611a1b565b915082820484148315176124cf576124ce611d71565b5b5092915050565b7f4e487b7100000000000000000000000000000000000000000000000000000000600052604160045260246000fd5b7f4e487b7100000000000000000000000000000000000000000000000000000000600052603260045260246000fd5b600061253f82611a1b565b91506000820361255257612551611d71565b5b600182039050919050565b7f537472696e67733a20686578206c656e67746820696e73756666696369656e74600082015250565b6000612593602083611916565b915061259e8261255d565b602082019050919050565b600060208201905081810360008301526125c281612586565b905091905056fea264697066735822122062701460b35a47e8d840f6523b1ed1fd5182d643caba72a53b4509212a73445964736f6c63430008110033",
  "linkReferences": {},
  "deployedLinkReferences": {}
}