{
  "_format": "hh-sol-artifact-1",
  "contractName": "AGFanTokens",
  "sourceName": "contracts/AGFanTokens.sol",
  "abi": [
    {
      "inputs": [
        {
          "internalType": "string",
          "name": "name",
          "type": "string"
        },
        {
          "internalType": "string",
          "name": "symbol",
          "type": "string"
        },
        {
          "internalType": "uint64",
          "name": "maxSupply",
          "type": "uint64"
        }
      ],
      "stateMutability": "nonpayable",
      "type": "constructor"
    },
    {
      "anonymous": false,
      "inputs": [
        {
          "indexed": true,
          "internalType": "address",
          "name": "owner",
          "type": "address"
        },
        {
          "indexed": true,
          "internalType": "address",
          "name": "spender",
          "type": "address"
        },
        {
          "indexed": false,
          "internalType": "uint256",
          "name": "value",
          "type": "uint256"
        }
      ],
      "name": "Approval",
      "type": "event"
    },
    {
      "anonymous": false,
      "inputs": [
        {
          "indexed": true,
          "internalType": "bytes32",
          "name": "role",
          "type": "bytes32"
        },
        {
          "indexed": true,
          "internalType": "bytes32",
          "name": "previousAdminRole",
          "type": "bytes32"
        },
        {
          "indexed": true,
          "internalType": "bytes32",
          "name": "newAdminRole",
          "type": "bytes32"
        }
      ],
      "name": "RoleAdminChanged",
      "type": "event"
    },
    {
      "anonymous": false,
      "inputs": [
        {
          "indexed": true,
          "internalType": "bytes32",
          "name": "role",
          "type": "bytes32"
        },
        {
          "indexed": true,
          "internalType": "address",
          "name": "account",
          "type": "address"
        },
        {
          "indexed": true,
          "internalType": "address",
          "name": "sender",
          "type": "address"
        }
      ],
      "name": "RoleGranted",
      "type": "event"
    },
    {
      "anonymous": false,
      "inputs": [
        {
          "indexed": true,
          "internalType": "bytes32",
          "name": "role",
          "type": "bytes32"
        },
        {
          "indexed": true,
          "internalType": "address",
          "name": "account",
          "type": "address"
        },
        {
          "indexed": true,
          "internalType": "address",
          "name": "sender",
          "type": "address"
        }
      ],
      "name": "RoleRevoked",
      "type": "event"
    },
    {
      "anonymous": false,
      "inputs": [
        {
          "indexed": true,
          "internalType": "address",
          "name": "from",
          "type": "address"
        },
        {
          "indexed": true,
          "internalType": "address",
          "name": "to",
          "type": "address"
        },
        {
          "indexed": false,
          "internalType": "uint256",
          "name": "value",
          "type": "uint256"
        }
      ],
      "name": "Transfer",
      "type": "event"
    },
    {
      "inputs": [],
      "name": "DEFAULT_ADMIN_ROLE",
      "outputs": [
        {
          "internalType": "bytes32",
          "name": "",
          "type": "bytes32"
        }
      ],
      "stateMutability": "view",
      "type": "function"
    },
    {
      "inputs": [],
      "name": "MINTER_ROLE",
      "outputs": [
        {
          "internalType": "bytes32",
          "name": "",
          "type": "bytes32"
        }
      ],
      "stateMutability": "view",
      "type": "function"
    },
    {
      "inputs": [
        {
          "internalType": "address",
          "name": "owner",
          "type": "address"
        },
        {
          "internalType": "address",
          "name": "spender",
          "type": "address"
        }
      ],
      "name": "allowance",
      "outputs": [
        {
          "internalType": "uint256",
          "name": "",
          "type": "uint256"
        }
      ],
      "stateMutability": "view",
      "type": "function"
    },
    {
      "inputs": [
        {
          "internalType": "address",
          "name": "spender",
          "type": "address"
        },
        {
          "internalType": "uint256",
          "name": "amount",
          "type": "uint256"
        }
      ],
      "name": "approve",
      "outputs": [
        {
          "internalType": "bool",
          "name": "",
          "type": "bool"
        }
      ],
      "stateMutability": "nonpayable",
      "type": "function"
    },
    {
      "inputs": [
        {
          "internalType": "address",
          "name": "account",
          "type": "address"
        }
      ],
      "name": "balanceOf",
      "outputs": [
        {
          "internalType": "uint256",
          "name": "",
          "type": "uint256"
        }
      ],
      "stateMutability": "view",
      "type": "function"
    },
    {
      "inputs": [],
      "name": "cap",
      "outputs": [
        {
          "internalType": "uint256",
          "name": "",
          "type": "uint256"
        }
      ],
      "stateMutability": "view",
      "type": "function"
    },
    {
      "inputs": [],
      "name": "decimals",
      "outputs": [
        {
          "internalType": "uint8",
          "name": "",
          "type": "uint8"
        }
      ],
      "stateMutability": "view",
      "type": "function"
    },
    {
      "inputs": [
        {
          "internalType": "address",
          "name": "spender",
          "type": "address"
        },
        {
          "internalType": "uint256",
          "name": "subtractedValue",
          "type": "uint256"
        }
      ],
      "name": "decreaseAllowance",
      "outputs": [
        {
          "internalType": "bool",
          "name": "",
          "type": "bool"
        }
      ],
      "stateMutability": "nonpayable",
      "type": "function"
    },
    {
      "inputs": [
        {
          "internalType": "bytes32",
          "name": "role",
          "type": "bytes32"
        }
      ],
      "name": "getRoleAdmin",
      "outputs": [
        {
          "internalType": "bytes32",
          "name": "",
          "type": "bytes32"
        }
      ],
      "stateMutability": "view",
      "type": "function"
    },
    {
      "inputs": [
        {
          "internalType": "bytes32",
          "name": "role",
          "type": "bytes32"
        },
        {
          "internalType": "address",
          "name": "account",
          "type": "address"
        }
      ],
      "name": "grantRole",
      "outputs": [],
      "stateMutability": "nonpayable",
      "type": "function"
    },
    {
      "inputs": [
        {
          "internalType": "bytes32",
          "name": "role",
          "type": "bytes32"
        },
        {
          "internalType": "address",
          "name": "account",
          "type": "address"
        }
      ],
      "name": "hasRole",
      "outputs": [
        {
          "internalType": "bool",
          "name": "",
          "type": "bool"
        }
      ],
      "stateMutability": "view",
      "type": "function"
    },
    {
      "inputs": [
        {
          "internalType": "address",
          "name": "spender",
          "type": "address"
        },
        {
          "internalType": "uint256",
          "name": "addedValue",
          "type": "uint256"
        }
      ],
      "name": "increaseAllowance",
      "outputs": [
        {
          "internalType": "bool",
          "name": "",
          "type": "bool"
        }
      ],
      "stateMutability": "nonpayable",
      "type": "function"
    },
    {
      "inputs": [
        {
          "internalType": "address",
          "name": "to",
          "type": "address"
        },
        {
          "internalType": "uint256",
          "name": "amount",
          "type": "uint256"
        }
      ],
      "name": "mint",
      "outputs": [],
      "stateMutability": "nonpayable",
      "type": "function"
    },
    {
      "inputs": [],
      "name": "name",
      "outputs": [
        {
          "internalType": "string",
          "name": "",
          "type": "string"
        }
      ],
      "stateMutability": "view",
      "type": "function"
    },
    {
      "inputs": [
        {
          "internalType": "bytes32",
          "name": "role",
          "type": "bytes32"
        },
        {
          "internalType": "address",
          "name": "account",
          "type": "address"
        }
      ],
      "name": "renounceRole",
      "outputs": [],
      "stateMutability": "nonpayable",
      "type": "function"
    },
    {
      "inputs": [
        {
          "internalType": "bytes32",
          "name": "role",
          "type": "bytes32"
        },
        {
          "internalType": "address",
          "name": "account",
          "type": "address"
        }
      ],
      "name": "revokeRole",
      "outputs": [],
      "stateMutability": "nonpayable",
      "type": "function"
    },
    {
      "inputs": [
        {
          "internalType": "bytes4",
          "name": "interfaceId",
          "type": "bytes4"
        }
      ],
      "name": "supportsInterface",
      "outputs": [
        {
          "internalType": "bool",
          "name": "",
          "type": "bool"
        }
      ],
      "stateMutability": "view",
      "type": "function"
    },
    {
      "inputs": [],
      "name": "symbol",
      "outputs": [
        {
          "internalType": "string",
          "name": "",
          "type": "string"
        }
      ],
      "stateMutability": "view",
      "type": "function"
    },
    {
      "inputs": [],
      "name": "totalSupply",
      "outputs": [
        {
          "internalType": "uint256",
          "name": "",
          "type": "uint256"
        }
      ],
      "stateMutability": "view",
      "type": "function"
    },
    {
      "inputs": [
        {
          "internalType": "address",
          "name": "to",
          "type": "address"
        },
        {
          "internalType": "uint256",
          "name": "amount",
          "type": "uint256"
        }
      ],
      "name": "transfer",
      "outputs": [
        {
          "internalType": "bool",
          "name": "",
          "type": "bool"
        }
      ],
      "stateMutability": "nonpayable",
      "type": "function"
    },
    {
      "inputs": [
        {
          "internalType": "address",
          "name": "from",
          "type": "address"
        },
        {
          "internalType": "address",
          "name": "to",
          "type": "address"
        },
        {
          "internalType": "uint256",
          "name": "amount",
          "type": "uint256"
        }
      ],
      "name": "transferFrom",
      "outputs": [
        {
          "internalType": "bool",
          "name": "",
          "type": "bool"
        }
      ],
      "stateMutability": "nonpayable",
      "type": "function"
    }
  ],
  "bytecode": "0x60a06040523480156200001157600080fd5b5060405162002d6b38038062002d6b833981810160405281019062000037919062000479565b620000476200013360201b60201c565b600a620000559190620006ad565b8167ffffffffffffffff166200006c9190620006fe565b838381600390816200007f91906200098a565b5080600490816200009191906200098a565b50505060008111620000da576040517f08c379a0000000000000000000000000000000000000000000000000000000008152600401620000d19062000ad2565b60405180910390fd5b806080818152505050620000f86000801b336200013c60201b60201c565b6200012a7f9f2df0fed2c77648de5860a4cc508cd0818c85b8b8a1ab4ceeef8d981c8956a6336200013c60201b60201c565b50505062000af4565b60006012905090565b6200014e82826200022e60201b60201c565b6200022a5760016005600084815260200190815260200160002060000160008373ffffffffffffffffffffffffffffffffffffffff1673ffffffffffffffffffffffffffffffffffffffff16815260200190815260200160002060006101000a81548160ff021916908315150217905550620001cf6200029960201b60201c565b73ffffffffffffffffffffffffffffffffffffffff168173ffffffffffffffffffffffffffffffffffffffff16837f2f8788117e7eff1d82e926ec794901d17c78024a50270940304540a733656f0d60405160405180910390a45b5050565b60006005600084815260200190815260200160002060000160008373ffffffffffffffffffffffffffffffffffffffff1673ffffffffffffffffffffffffffffffffffffffff16815260200190815260200160002060009054906101000a900460ff16905092915050565b600033905090565b6000604051905090565b600080fd5b600080fd5b600080fd5b600080fd5b6000601f19601f8301169050919050565b7f4e487b7100000000000000000000000000000000000000000000000000000000600052604160045260246000fd5b6200030a82620002bf565b810181811067ffffffffffffffff821117156200032c576200032b620002d0565b5b80604052505050565b600062000341620002a1565b90506200034f8282620002ff565b919050565b600067ffffffffffffffff821115620003725762000371620002d0565b5b6200037d82620002bf565b9050602081019050919050565b60005b83811015620003aa5780820151818401526020810190506200038d565b60008484015250505050565b6000620003cd620003c78462000354565b62000335565b905082815260208101848484011115620003ec57620003eb620002ba565b5b620003f98482856200038a565b509392505050565b600082601f830112620004195762000418620002b5565b5b81516200042b848260208601620003b6565b91505092915050565b600067ffffffffffffffff82169050919050565b620004538162000434565b81146200045f57600080fd5b50565b600081519050620004738162000448565b92915050565b600080600060608486031215620004955762000494620002ab565b5b600084015167ffffffffffffffff811115620004b657620004b5620002b0565b5b620004c48682870162000401565b935050602084015167ffffffffffffffff811115620004e857620004e7620002b0565b5b620004f68682870162000401565b9250506040620005098682870162000462565b9150509250925092565b7f4e487b7100000000000000000000000000000000000000000000000000000000600052601160045260246000fd5b60008160011c9050919050565b6000808291508390505b6001851115620005a15780860481111562000579576200057862000513565b5b6001851615620005895780820291505b8081029050620005998562000542565b945062000559565b94509492505050565b600082620005bc57600190506200068f565b81620005cc57600090506200068f565b8160018114620005e55760028114620005f05762000626565b60019150506200068f565b60ff84111562000605576200060462000513565b5b8360020a9150848211156200061f576200061e62000513565b5b506200068f565b5060208310610133831016604e8410600b8410161715620006605782820a9050838111156200065a576200065962000513565b5b6200068f565b6200066f84848460016200054f565b9250905081840481111562000689576200068862000513565b5b81810290505b9392505050565b6000819050919050565b600060ff82169050919050565b6000620006ba8262000696565b9150620006c783620006a0565b9250620006f67fffffffffffffffffffffffffffffffffffffffffffffffffffffffffffffffff8484620005aa565b905092915050565b60006200070b8262000696565b9150620007188362000696565b9250828202620007288162000696565b9150828204841483151762000742576200074162000513565b5b5092915050565b600081519050919050565b7f4e487b7100000000000000000000000000000000000000000000000000000000600052602260045260246000fd5b600060028204905060018216806200079c57607f821691505b602082108103620007b257620007b162000754565b5b50919050565b60008190508160005260206000209050919050565b60006020601f8301049050919050565b600082821b905092915050565b6000600883026200081c7fffffffffffffffffffffffffffffffffffffffffffffffffffffffffffffffff82620007dd565b620008288683620007dd565b95508019841693508086168417925050509392505050565b6000819050919050565b60006200086b620008656200085f8462000696565b62000840565b62000696565b9050919050565b6000819050919050565b62000887836200084a565b6200089f620008968262000872565b848454620007ea565b825550505050565b600090565b620008b6620008a7565b620008c38184846200087c565b505050565b5b81811015620008eb57620008df600082620008ac565b600181019050620008c9565b5050565b601f8211156200093a576200090481620007b8565b6200090f84620007cd565b810160208510156200091f578190505b620009376200092e85620007cd565b830182620008c8565b50505b505050565b600082821c905092915050565b60006200095f600019846008026200093f565b1980831691505092915050565b60006200097a83836200094c565b9150826002028217905092915050565b620009958262000749565b67ffffffffffffffff811115620009b157620009b0620002d0565b5b620009bd825462000783565b620009ca828285620008ef565b600060209050601f83116001811462000a025760008415620009ed578287015190505b620009f985826200096c565b86555062000a69565b601f19841662000a1286620007b8565b60005b8281101562000a3c5784890151825560018201915060208501945060208101905062000a15565b8683101562000a5c578489015162000a58601f8916826200094c565b8355505b6001600288020188555050505b505050505050565b600082825260208201905092915050565b7f45524332304361707065643a2063617020697320300000000000000000000000600082015250565b600062000aba60158362000a71565b915062000ac78262000a82565b602082019050919050565b6000602082019050818103600083015262000aed8162000aab565b9050919050565b60805161225b62000b106000396000610614015261225b6000f3fe608060405234801561001057600080fd5b50600436106101375760003560e01c806339509351116100b8578063a217fddf1161007c578063a217fddf14610376578063a457c2d714610394578063a9059cbb146103c4578063d5391393146103f4578063d547741f14610412578063dd62ed3e1461042e57610137565b806339509351146102ac57806340c10f19146102dc57806370a08231146102f857806391d148541461032857806395d89b411461035857610137565b8063248a9ca3116100ff578063248a9ca3146102085780632f2ff15d14610238578063313ce56714610254578063355274ea1461027257806336568abe1461029057610137565b806301ffc9a71461013c57806306fdde031461016c578063095ea7b31461018a57806318160ddd146101ba57806323b872dd146101d8575b600080fd5b61015660048036038101906101519190611606565b61045e565b604051610163919061164e565b60405180910390f35b6101746104d8565b60405161018191906116f9565b60405180910390f35b6101a4600480360381019061019f91906117af565b61056a565b6040516101b1919061164e565b60405180910390f35b6101c261058d565b6040516101cf91906117fe565b60405180910390f35b6101f260048036038101906101ed9190611819565b610597565b6040516101ff919061164e565b60405180910390f35b610222600480360381019061021d91906118a2565b6105c6565b60405161022f91906118de565b60405180910390f35b610252600480360381019061024d91906118f9565b6105e6565b005b61025c610607565b6040516102699190611955565b60405180910390f35b61027a610610565b60405161028791906117fe565b60405180910390f35b6102aa60048036038101906102a591906118f9565b610638565b005b6102c660048036038101906102c191906117af565b6106bb565b6040516102d3919061164e565b60405180910390f35b6102f660048036038101906102f191906117af565b6106f2565b005b610312600480360381019061030d9190611970565b61072b565b60405161031f91906117fe565b60405180910390f35b610342600480360381019061033d91906118f9565b610773565b60405161034f919061164e565b60405180910390f35b6103606107de565b60405161036d91906116f9565b60405180910390f35b61037e610870565b60405161038b91906118de565b60405180910390f35b6103ae60048036038101906103a991906117af565b610877565b6040516103bb919061164e565b60405180910390f35b6103de60048036038101906103d991906117af565b6108ee565b6040516103eb919061164e565b60405180910390f35b6103fc610911565b60405161040991906118de565b60405180910390f35b61042c600480360381019061042791906118f9565b610935565b005b6104486004803603810190610443919061199d565b610956565b60405161045591906117fe565b60405180910390f35b60007f7965db0b000000000000000000000000000000000000000000000000000000007bffffffffffffffffffffffffffffffffffffffffffffffffffffffff1916827bffffffffffffffffffffffffffffffffffffffffffffffffffffffff191614806104d157506104d0826109dd565b5b9050919050565b6060600380546104e790611a0c565b80601f016020809104026020016040519081016040528092919081815260200182805461051390611a0c565b80156105605780601f1061053557610100808354040283529160200191610560565b820191906000526020600020905b81548152906001019060200180831161054357829003601f168201915b5050505050905090565b600080610575610a47565b9050610582818585610a4f565b600191505092915050565b6000600254905090565b6000806105a2610a47565b90506105af858285610c18565b6105ba858585610ca4565b60019150509392505050565b600060056000838152602001908152602001600020600101549050919050565b6105ef826105c6565b6105f881610f1a565b6106028383610f2e565b505050565b60006012905090565b60007f0000000000000000000000000000000000000000000000000000000000000000905090565b610640610a47565b73ffffffffffffffffffffffffffffffffffffffff168173ffffffffffffffffffffffffffffffffffffffff16146106ad576040517f08c379a00000000000000000000000000000000000000000000000000000000081526004016106a490611aaf565b60405180910390fd5b6106b7828261100f565b5050565b6000806106c6610a47565b90506106e78185856106d88589610956565b6106e29190611afe565b610a4f565b600191505092915050565b7f9f2df0fed2c77648de5860a4cc508cd0818c85b8b8a1ab4ceeef8d981c8956a661071c81610f1a565b61072683836110f1565b505050565b60008060008373ffffffffffffffffffffffffffffffffffffffff1673ffffffffffffffffffffffffffffffffffffffff168152602001908152602001600020549050919050565b60006005600084815260200190815260200160002060000160008373ffffffffffffffffffffffffffffffffffffffff1673ffffffffffffffffffffffffffffffffffffffff16815260200190815260200160002060009054906101000a900460ff16905092915050565b6060600480546107ed90611a0c565b80601f016020809104026020016040519081016040528092919081815260200182805461081990611a0c565b80156108665780601f1061083b57610100808354040283529160200191610866565b820191906000526020600020905b81548152906001019060200180831161084957829003601f168201915b5050505050905090565b6000801b81565b600080610882610a47565b905060006108908286610956565b9050838110156108d5576040517f08c379a00000000000000000000000000000000000000000000000000000000081526004016108cc90611ba4565b60405180910390fd5b6108e28286868403610a4f565b60019250505092915050565b6000806108f9610a47565b9050610906818585610ca4565b600191505092915050565b7f9f2df0fed2c77648de5860a4cc508cd0818c85b8b8a1ab4ceeef8d981c8956a681565b61093e826105c6565b61094781610f1a565b610951838361100f565b505050565b6000600160008473ffffffffffffffffffffffffffffffffffffffff1673ffffffffffffffffffffffffffffffffffffffff16815260200190815260200160002060008373ffffffffffffffffffffffffffffffffffffffff1673ffffffffffffffffffffffffffffffffffffffff16815260200190815260200160002054905092915050565b60007f01ffc9a7000000000000000000000000000000000000000000000000000000007bffffffffffffffffffffffffffffffffffffffffffffffffffffffff1916827bffffffffffffffffffffffffffffffffffffffffffffffffffffffff1916149050919050565b600033905090565b600073ffffffffffffffffffffffffffffffffffffffff168373ffffffffffffffffffffffffffffffffffffffff1603610abe576040517f08c379a0000000000000000000000000000000000000000000000000000000008152600401610ab590611c36565b60405180910390fd5b600073ffffffffffffffffffffffffffffffffffffffff168273ffffffffffffffffffffffffffffffffffffffff1603610b2d576040517f08c379a0000000000000000000000000000000000000000000000000000000008152600401610b2490611cc8565b60405180910390fd5b80600160008573ffffffffffffffffffffffffffffffffffffffff1673ffffffffffffffffffffffffffffffffffffffff16815260200190815260200160002060008473ffffffffffffffffffffffffffffffffffffffff1673ffffffffffffffffffffffffffffffffffffffff168152602001908152602001600020819055508173ffffffffffffffffffffffffffffffffffffffff168373ffffffffffffffffffffffffffffffffffffffff167f8c5be1e5ebec7d5bd14f71427d1e84f3dd0314c0f7b2291e5b200ac8c7c3b92583604051610c0b91906117fe565b60405180910390a3505050565b6000610c248484610956565b90507fffffffffffffffffffffffffffffffffffffffffffffffffffffffffffffffff8114610c9e5781811015610c90576040517f08c379a0000000000000000000000000000000000000000000000000000000008152600401610c8790611d34565b60405180910390fd5b610c9d8484848403610a4f565b5b50505050565b600073ffffffffffffffffffffffffffffffffffffffff168373ffffffffffffffffffffffffffffffffffffffff1603610d13576040517f08c379a0000000000000000000000000000000000000000000000000000000008152600401610d0a90611dc6565b60405180910390fd5b600073ffffffffffffffffffffffffffffffffffffffff168273ffffffffffffffffffffffffffffffffffffffff1603610d82576040517f08c379a0000000000000000000000000000000000000000000000000000000008152600401610d7990611e58565b60405180910390fd5b610d8d83838361115b565b60008060008573ffffffffffffffffffffffffffffffffffffffff1673ffffffffffffffffffffffffffffffffffffffff16815260200190815260200160002054905081811015610e13576040517f08c379a0000000000000000000000000000000000000000000000000000000008152600401610e0a90611eea565b60405180910390fd5b8181036000808673ffffffffffffffffffffffffffffffffffffffff1673ffffffffffffffffffffffffffffffffffffffff16815260200190815260200160002081905550816000808573ffffffffffffffffffffffffffffffffffffffff1673ffffffffffffffffffffffffffffffffffffffff168152602001908152602001600020600082825401925050819055508273ffffffffffffffffffffffffffffffffffffffff168473ffffffffffffffffffffffffffffffffffffffff167fddf252ad1be2c89b69c2b068fc378daa952ba7f163c4a11628f55a4df523b3ef84604051610f0191906117fe565b60405180910390a3610f14848484611160565b50505050565b610f2b81610f26610a47565b611165565b50565b610f388282610773565b61100b5760016005600084815260200190815260200160002060000160008373ffffffffffffffffffffffffffffffffffffffff1673ffffffffffffffffffffffffffffffffffffffff16815260200190815260200160002060006101000a81548160ff021916908315150217905550610fb0610a47565b73ffffffffffffffffffffffffffffffffffffffff168173ffffffffffffffffffffffffffffffffffffffff16837f2f8788117e7eff1d82e926ec794901d17c78024a50270940304540a733656f0d60405160405180910390a45b5050565b6110198282610773565b156110ed5760006005600084815260200190815260200160002060000160008373ffffffffffffffffffffffffffffffffffffffff1673ffffffffffffffffffffffffffffffffffffffff16815260200190815260200160002060006101000a81548160ff021916908315150217905550611092610a47565b73ffffffffffffffffffffffffffffffffffffffff168173ffffffffffffffffffffffffffffffffffffffff16837ff6391f5c32d9c69d2a47ea670b442974b53935d1edc7fd64eb21e047a839171b60405160405180910390a45b5050565b6110f9610610565b8161110261058d565b61110c9190611afe565b111561114d576040517f08c379a000000000000000000000000000000000000000000000000000000000815260040161114490611f56565b60405180910390fd5b61115782826111ea565b5050565b505050565b505050565b61116f8282610773565b6111e65761117c81611340565b61118a8360001c602061136d565b60405160200161119b92919061204a565b6040516020818303038152906040526040517f08c379a00000000000000000000000000000000000000000000000000000000081526004016111dd91906116f9565b60405180910390fd5b5050565b600073ffffffffffffffffffffffffffffffffffffffff168273ffffffffffffffffffffffffffffffffffffffff1603611259576040517f08c379a0000000000000000000000000000000000000000000000000000000008152600401611250906120d0565b60405180910390fd5b6112656000838361115b565b80600260008282546112779190611afe565b92505081905550806000808473ffffffffffffffffffffffffffffffffffffffff1673ffffffffffffffffffffffffffffffffffffffff168152602001908152602001600020600082825401925050819055508173ffffffffffffffffffffffffffffffffffffffff16600073ffffffffffffffffffffffffffffffffffffffff167fddf252ad1be2c89b69c2b068fc378daa952ba7f163c4a11628f55a4df523b3ef8360405161132891906117fe565b60405180910390a361133c60008383611160565b5050565b60606113668273ffffffffffffffffffffffffffffffffffffffff16601460ff1661136d565b9050919050565b60606000600283600261138091906120f0565b61138a9190611afe565b67ffffffffffffffff8111156113a3576113a2612132565b5b6040519080825280601f01601f1916602001820160405280156113d55781602001600182028036833780820191505090505b5090507f30000000000000000000000000000000000000000000000000000000000000008160008151811061140d5761140c612161565b5b60200101907effffffffffffffffffffffffffffffffffffffffffffffffffffffffffffff1916908160001a9053507f78000000000000000000000000000000000000000000000000000000000000008160018151811061147157611470612161565b5b60200101907effffffffffffffffffffffffffffffffffffffffffffffffffffffffffffff1916908160001a905350600060018460026114b191906120f0565b6114bb9190611afe565b90505b600181111561155b577f3031323334353637383961626364656600000000000000000000000000000000600f8616601081106114fd576114fc612161565b5b1a60f81b82828151811061151457611513612161565b5b60200101907effffffffffffffffffffffffffffffffffffffffffffffffffffffffffffff1916908160001a905350600485901c94508061155490612190565b90506114be565b506000841461159f576040517f08c379a000000000000000000000000000000000000000000000000000000000815260040161159690612205565b60405180910390fd5b8091505092915050565b600080fd5b60007fffffffff0000000000000000000000000000000000000000000000000000000082169050919050565b6115e3816115ae565b81146115ee57600080fd5b50565b600081359050611600816115da565b92915050565b60006020828403121561161c5761161b6115a9565b5b600061162a848285016115f1565b91505092915050565b60008115159050919050565b61164881611633565b82525050565b6000602082019050611663600083018461163f565b92915050565b600081519050919050565b600082825260208201905092915050565b60005b838110156116a3578082015181840152602081019050611688565b60008484015250505050565b6000601f19601f8301169050919050565b60006116cb82611669565b6116d58185611674565b93506116e5818560208601611685565b6116ee816116af565b840191505092915050565b6000602082019050818103600083015261171381846116c0565b905092915050565b600073ffffffffffffffffffffffffffffffffffffffff82169050919050565b60006117468261171b565b9050919050565b6117568161173b565b811461176157600080fd5b50565b6000813590506117738161174d565b92915050565b6000819050919050565b61178c81611779565b811461179757600080fd5b50565b6000813590506117a981611783565b92915050565b600080604083850312156117c6576117c56115a9565b5b60006117d485828601611764565b92505060206117e58582860161179a565b9150509250929050565b6117f881611779565b82525050565b600060208201905061181360008301846117ef565b92915050565b600080600060608486031215611832576118316115a9565b5b600061184086828701611764565b935050602061185186828701611764565b92505060406118628682870161179a565b9150509250925092565b6000819050919050565b61187f8161186c565b811461188a57600080fd5b50565b60008135905061189c81611876565b92915050565b6000602082840312156118b8576118b76115a9565b5b60006118c68482850161188d565b91505092915050565b6118d88161186c565b82525050565b60006020820190506118f360008301846118cf565b92915050565b600080604083850312156119105761190f6115a9565b5b600061191e8582860161188d565b925050602061192f85828601611764565b9150509250929050565b600060ff82169050919050565b61194f81611939565b82525050565b600060208201905061196a6000830184611946565b92915050565b600060208284031215611986576119856115a9565b5b600061199484828501611764565b91505092915050565b600080604083850312156119b4576119b36115a9565b5b60006119c285828601611764565b92505060206119d385828601611764565b9150509250929050565b7f4e487b7100000000000000000000000000000000000000000000000000000000600052602260045260246000fd5b60006002820490506001821680611a2457607f821691505b602082108103611a3757611a366119dd565b5b50919050565b7f416363657373436f6e74726f6c3a2063616e206f6e6c792072656e6f756e636560008201527f20726f6c657320666f722073656c660000000000000000000000000000000000602082015250565b6000611a99602f83611674565b9150611aa482611a3d565b604082019050919050565b60006020820190508181036000830152611ac881611a8c565b9050919050565b7f4e487b7100000000000000000000000000000000000000000000000000000000600052601160045260246000fd5b6000611b0982611779565b9150611b1483611779565b9250828201905080821115611b2c57611b2b611acf565b5b92915050565b7f45524332303a2064656372656173656420616c6c6f77616e63652062656c6f7760008201527f207a65726f000000000000000000000000000000000000000000000000000000602082015250565b6000611b8e602583611674565b9150611b9982611b32565b604082019050919050565b60006020820190508181036000830152611bbd81611b81565b9050919050565b7f45524332303a20617070726f76652066726f6d20746865207a65726f2061646460008201527f7265737300000000000000000000000000000000000000000000000000000000602082015250565b6000611c20602483611674565b9150611c2b82611bc4565b604082019050919050565b60006020820190508181036000830152611c4f81611c13565b9050919050565b7f45524332303a20617070726f766520746f20746865207a65726f20616464726560008201527f7373000000000000000000000000000000000000000000000000000000000000602082015250565b6000611cb2602283611674565b9150611cbd82611c56565b604082019050919050565b60006020820190508181036000830152611ce181611ca5565b9050919050565b7f45524332303a20696e73756666696369656e7420616c6c6f77616e6365000000600082015250565b6000611d1e601d83611674565b9150611d2982611ce8565b602082019050919050565b60006020820190508181036000830152611d4d81611d11565b9050919050565b7f45524332303a207472616e736665722066726f6d20746865207a65726f20616460008201527f6472657373000000000000000000000000000000000000000000000000000000602082015250565b6000611db0602583611674565b9150611dbb82611d54565b604082019050919050565b60006020820190508181036000830152611ddf81611da3565b9050919050565b7f45524332303a207472616e7366657220746f20746865207a65726f206164647260008201527f6573730000000000000000000000000000000000000000000000000000000000602082015250565b6000611e42602383611674565b9150611e4d82611de6565b604082019050919050565b60006020820190508181036000830152611e7181611e35565b9050919050565b7f45524332303a207472616e7366657220616d6f756e742065786365656473206260008201527f616c616e63650000000000000000000000000000000000000000000000000000602082015250565b6000611ed4602683611674565b9150611edf82611e78565b604082019050919050565b60006020820190508181036000830152611f0381611ec7565b9050919050565b7f45524332304361707065643a2063617020657863656564656400000000000000600082015250565b6000611f40601983611674565b9150611f4b82611f0a565b602082019050919050565b60006020820190508181036000830152611f6f81611f33565b9050919050565b600081905092915050565b7f416363657373436f6e74726f6c3a206163636f756e7420000000000000000000600082015250565b6000611fb7601783611f76565b9150611fc282611f81565b601782019050919050565b6000611fd882611669565b611fe28185611f76565b9350611ff2818560208601611685565b80840191505092915050565b7f206973206d697373696e6720726f6c6520000000000000000000000000000000600082015250565b6000612034601183611f76565b915061203f82611ffe565b601182019050919050565b600061205582611faa565b91506120618285611fcd565b915061206c82612027565b91506120788284611fcd565b91508190509392505050565b7f45524332303a206d696e7420746f20746865207a65726f206164647265737300600082015250565b60006120ba601f83611674565b91506120c582612084565b602082019050919050565b600060208201905081810360008301526120e9816120ad565b9050919050565b60006120fb82611779565b915061210683611779565b925082820261211481611779565b9150828204841483151761212b5761212a611acf565b5b5092915050565b7f4e487b7100000000000000000000000000000000000000000000000000000000600052604160045260246000fd5b7f4e487b7100000000000000000000000000000000000000000000000000000000600052603260045260246000fd5b600061219b82611779565b9150600082036121ae576121ad611acf565b5b600182039050919050565b7f537472696e67733a20686578206c656e67746820696e73756666696369656e74600082015250565b60006121ef602083611674565b91506121fa826121b9565b602082019050919050565b6000602082019050818103600083015261221e816121e2565b905091905056fea264697066735822122046f8415993495ce4f032c83cfcbbd6ca0f1c45c13323da579ae637dfeddd56f664736f6c63430008110033",
  "linkReferences": {},
  "deployedLinkReferences": {}
}